:100000000C9472010C9498010C9498010C94980132
:100010000C9498010C9498010C9498010C949801FC
:100020000C9498010C9498010C9498010C949801EC
:100030000C9498010C9498010C9498010C949801DC
:100040000C9498010C9498010C9498010C949801CC
:100050000C9498010C9498010C9498010C949801BC
:100060000C9498010C9498010C9498010C949801AC
:100070000C9498010C9498010C9498010C9498019C
:100080000C9498010C9498010C9498010C9498018C
:100090000C9498010C9498010C9498010C9498017C
:1000A0000C9498010C9498010C9498010C9498016C
:1000B0000C9498010C9498010C9498010C9498015C
:1000C0000C9498010C9498010C9498010C9498014C
:1000D0000C9498010C9498010C9498010C9498013C
:1000E0000C9498010C9498010C9498010C9498012C
:1000F0000C9498010C9498010C9498010C9498011C
:100100000C9498010C9498010C9498010C9498010B
:100110000C9498010C9498010C9498010C949801FB
:100120000C9498010C9498010C9498010C949801EB
:100130000C9498010C9430060C9498010C9498013E
:100140000C9498010C9498010C9498010C949801CB
:100150000C9498010C9498010C9498010C949801BB
:100160000C94DD050C9498010C9498010C94980162
:100170000C9498010C9498010C9498010C9498019B
:100180000C9498010C9498010C9498010C9498018B
:100190000C9498010C9498010C9498010C9498017B
:1001A0000C9498010C9498010C9498010C9498016B
:1001B0000C9498010C9498010C9498010C9498015B
:1001C0000C9498010C9498010C9498010C9498014B
:1001D0000C9498010C9498010C9498010C9498013B
:1001E0000C9498010C9498010C9498010C9498012B
:1001F0000C9498010C9498010C9498010A0514052C
:100200002305E2043705E2042D05E204E204E204DA
:10021000E204E204E204E204E204E2040A05140552
:10022000E20423052D053705E204E204E204E204BA
:10023000E204E204E204E204E204E204E20405056A
:10024000E204E204E2043205E204E204E204E2042D
:10025000E2043C054105E2040F05460519052805A1
:10026000E204E204E2041E05E204E204E204E20421
:10027000E204E204E204E204E204E204E20405052A
:10028000E204E204E2043205E204E204E204E204ED
:10029000E2043C054105E2040F0546051905280561
:1002A000E204E204E2041E050C9428050C944105C6
:1002B0000C943C050C9419050C9414050C9432050F
:1002C0000C941E050C942D050C9437050C944605D2
:1002D0000C9423050C9405050C94E2040C940F0572
:1002E0000C940A0511241FBECFEFCDBFDFE3DEBFA4
:1002F00000E00CBF18BE19BE1ABE1BBE14E2A0E07F
:10030000B0E2EEE2FDE000E00BBF02C007900D920C
:10031000A030B107D9F71BBE24E2A0E0B4E201C0CF
:100320001D92A830B207E1F70E942A040C949506AA
:100330000C9400008F9382E08093500080915100D4
:1003400081FFFCCF88ED8093340081E080934000F2
:1003500088ED8093340080E0809341008F91089570
:100360000F931F93CF93DF93CDB7DEB72997CDBF00
:10037000DEBF89839A836B837C834D835E832F8367
:100380000887198789819A81FC01108289819A8165
:10039000FC01118289819A81FC0110A211A289813C
:1003A0009A812D813E81FC0126A337A388859985FA
:1003B00029813A81FC01208331838B819C818430A7
:1003C000910571F18530910548F481309105E1F096
:1003D00081309105A0F00297E9F040C0803491058A
:1003E00059F18134910518F4089701F137C081154E
:1003F000F1E09F0739F18115944051F12FC08885B4
:100400009985FC0112822AC08885998521E0FC012A
:10041000228324C08885998522E0FC0122831EC0A6
:100420008885998523E0FC01228318C088859985F9
:1004300024E0FC01228312C08885998525E0FC0117
:1004400022830CC08885998526E0FC01228306C0A2
:100450008885998527E0FC01228300008F81882F01
:1004600090E081709927892B79F089819A8121E028
:10047000FC01268380EA90E020EA30E0F901228145
:100480002160FC012283789400002996CDBFDEBF55
:10049000DF91CF911F910F910895CF93DF931F921A
:1004A0001F92CDB7DEB789839A8389819A81FC0137
:1004B00080819181FC0110A211A200000F900F9089
:1004C000DF91CF910895CF93DF931F921F92CDB705
:1004D000DEB789839A8389819A81FC018081918129
:1004E000FC01108200000F900F90DF91CF910895D2
:1004F000CF93DF931F921F92CDB7DEB789839A8384
:1005000089819A81FC018081918129813A81F90157
:100510002281FC01208300000F900F90DF91CF918A
:100520000895CF93DF9300D000D0CDB7DEB7898395
:100530009A836B837C834D835E8389819A81FC01DE
:1005400080819181FC01108289819A81FC018081E6
:100550009181FC0110A211A289819A81FC01808104
:1005600091812D813E81FC0126A337A38B819C8143
:100570008430910571F18530910548F48130910501
:10058000E1F081309105A0F00297E9F040C080349D
:10059000910559F18134910518F4089701F137C09C
:1005A0008115F1E09F0739F18115944051F12FC079
:1005B00089819A81FC0112822AC089819A8121E075
:1005C000FC01228324C089819A8122E0FC012283DC
:1005D0001EC089819A8123E0FC01228318C0898191
:1005E0009A8124E0FC01228312C089819A8125E04E
:1005F000FC0122830CC089819A8126E0FC012283C0
:1006000006C089819A8127E0FC0122830000000056
:100610002696CDBFDEBFDF91CF910895EF920F9365
:10062000CF93DF93CDB7DEB72797CDBFDEBF8983EA
:100630006A837B834C832D830E83EF8280E696E072
:1006400028E0FC01258380E696E028E0FC01218378
:1006500080E696E0FC01138A80EA99E02F81222F40
:1006600030E022703327232B11F024E001C020E07A
:10067000FC0124838F81882F90E081709927892B3A
:10068000A1F080E696E024E0FC01228380E696E07B
:1006900028E1FC01228B80EA99E020E1FC01238320
:1006A00080EA99E020E8FC01218380EA99E0FC01DE
:1006B00015828C81882F90E08730910511F1883068
:1006C000910534F48530910549F0069781F037C0E3
:1006D0008830910501F1099741F131C080EA99E034
:1006E00020EA39E0F9012581FC01258328C080EA50
:1006F00099E020EA39E0F90125812160FC01258398
:100700001EC080EA99E020EA39E0F90125812260E3
:10071000FC01258314C080EA99E020EA39E0F90160
:1007200025812360FC0125830AC080EA99E020EA44
:1007300039E0F90125812760FC01258300008D81C6
:10074000882F90E08130910571F082309105A9F0F9
:10075000892BE9F480EA99E020EA39E0F901258162
:10076000FC01258314C080EA99E020EA39E0F90110
:1007700025812063FC0125830AC080EA99E020EAF4
:1007800039E0F90125812062FC01258300008E817A
:10079000882349F080EA99E020EA39E0F9012581CF
:1007A0002860FC01258380EA99E02A81FC012683E8
:1007B00080EA99E02981422F4295407F2A813B813E
:1007C000232F33272F70242BFC01278380EA99E005
:1007D00020EA39E0F90124812860FC0124838F811B
:1007E000882F90E081709927892B99F080EA99E011
:1007F00020EA39E0F90124812061FC01248380EAA8
:1008000090E020EA30E0F90122812160FC0122839E
:10081000789400002796CDBFDEBFDF91CF910F9176
:10082000EF900895CF93DF931F92CDB7DEB7898302
:100830008981882339F0000080EA99E0FC018181F8
:100840008823D4F780EA99E0FC0180810F90DF9142
:10085000CF910895EF920F931F93CF93DF931F9241
:100860001F92CDB7DEB719820E949A01EE24E3945D
:1008700000E020E048E060E070E080E00E940E03CD
:1008800002E014E220E040E550E061E070E080E04A
:1008900098E00E94B00105E014E221E048EA51E648
:1008A00060E470E080E099E00E94B00180E891E0AF
:1008B00020ECFC01208380E096E028E0FC0121830D
:1008C00080E496E020E8FC01218380E496E020E8C3
:1008D000FC01258380E091E020E031E0F9012081F6
:1008E0002064FC01208380E091E0FC01168A80E016
:1008F00091E025E2FC01208B80E091E029E5FC01FC
:10090000228B80E091E021E0FC01238B80E091E0EC
:1009100020E032E0FC01248B358B80E091E020E088
:1009200030E2FC01208F20E031E080E090E2092EEF
:10093000000CAA0BBB0B892F9A2FAB2FBB27F901F9
:10094000818F20E031E080E090E2092E000CAA0BBC
:10095000BB0BCD01AA27BB27F901828F80E091E074
:100960002AE1FC01248F80E091E023E0FC01258F47
:1009700080E091E0FC01168E80E091E020E031E023
:10098000F90120892068FC01208B80E091E020E0C3
:1009900031E0F90120812068FC01208380E093E0B0
:1009A00020E2FC01218380E093E028E1FC01228326
:1009B00080E093E021E0FC01208380E093E0FC01F3
:1009C000128E138E00009091002481E089278823E5
:1009D000D1F710920024809101248A838A81882F84
:1009E00090E0092E000CAA0BBB0B44E250E025E579
:1009F00030E0841B950B2817390720F3FC0188276A
:100A0000E250FF4F8F4F0C948C0687E790E00E94D6
:100A1000B105A6C081E790E00E94B105A1C08AE6B9
:100A200090E00E94B1059CC084E690E00E94B10570
:100A300097C08FE590E00E94B10592C089E590E0F3
:100A40000E94B1058DC084E590E00E94B10588C088
:100A500080E590E00E94B10583C08BE490E00E94A5
:100A6000B1057EC087E490E00E94B10579C083E4BF
:100A700090E00E94B10574C08FE390E00E94B10540
:100A80006FC08CE390E00E94B1056AC080E091E005
:100A900020E031E0F90120892F77FC01208B89814A
:100AA000882351F180E091E020E030E2FC01208FCA
:100AB00020E031E080E090E2092E000CAA0BBB0B95
:100AC000892F9A2FAB2FBB27F901818F20E031E0CE
:100AD00080E090E2092E000CAA0BBB0BCD01AA27E7
:100AE000BB27F901828F80E091E020E032E0FC0139
:100AF000248B358B19822AC080E091E020E032E21D
:100B0000FC01208F20E031E080E092E2092E000C11
:100B1000AA0BBB0B892F9A2FAB2FBB27F901818F13
:100B200020E031E080E092E2092E000CAA0BBB0B22
:100B3000CD01AA27BB27F901828F80E091E020E058
:100B400032E0FC01248B358B81E0898380E091E0E9
:100B500020E031E0F90120892068FC01208B0000B1
:100B600031CFCF93DF931F921F92CDB7DEB789832A
:100B70009A8389819A81AC0161E070E082E094E21D
:100B80000E94910282E094E20E94780280E093E069
:100B900020E033E0F90120812860FC01208385E01A
:100BA00094E20E944D0285E094E20E9478020000E7
:100BB0000F900F90DF91CF9108951F920F920090A8
:100BC0003F000F921124009038000F9210923800CD
:100BD000009039000F921092390000903A000F9265
:100BE00010923A0000903B000F9210923B002F931E
:100BF0003F934F935F936F937F938F939F93AF93A5
:100C0000BF93EF93FF93CF93DF93CDB7DEB780E031
:100C10000E9412048093012481E08093002400004C
:100C2000DF91CF91FF91EF91BF91AF919F918F9104
:100C30007F916F915F914F913F912F910F90009213
:100C40003B000F9000923A000F90009239000F90F5
:100C5000009238000F9000923F000F901F9018955F
:100C60001F920F9200903F000F92112400903800C5
:100C70000F9210923800009039000F9210923900B4
:100C800000903A000F9210923A0000903B000F92B1
:100C900010923B002F933F934F935F936F937F93FB
:100CA0008F939F93AF93BF93EF93FF93CF93DF9374
:100CB000CDB7DEB782E094E20E94630280E093E069
:100CC00020E033E0F9012081277FFC01208385E0CB
:100CD00094E20E9463020000DF91CF91FF91EF91B7
:100CE000BF91AF919F918F917F916F915F914F9144
:100CF0003F912F910F9000923B000F9000923A008D
:100D00000F90009239000F90009238000F900092DF
:100D10003F000F901F901895EE0FFF1F881F8BBF8D
:0E0D20000790F691E02D1BBE1994F894FFCFBA
:100D2E000008320864089608C808FA082C095E09FB
:100D3E008F09C009F109220A520A820AB10AE00A91
:100D4E000F0B3D0B6B0B980BC50BF10B1C0C470CD3
:100D5E00710C9A0CC30CEB0C120D390D5F0D830D3B
:100D6E00A70DCA0DED0D0E0E2E0E4E0E6C0E8A0E2A
:100D7E00A60EC10EDC0EF50E0D0F240F3A0F4F0FFF
:100D8E00630F760F870F980FA70FB50FC20FCD0FFA
:100D9E00D80FE10FE90FF00FF50FF90FFD0FFE0F52
:100DAE00FF0FFE0FFD0FF90FF50FF00FE90FE10F1B
:100DBE00D80FCD0FC20FB50FA70F980F870F760F55
:100DCE00630F4F0F3A0F240F0D0FF50EDC0EC10EF1
:100DDE00A60E8A0E6C0E4E0E2E0E0E0EED0DCA0DBA
:100DEE00A70D830D5F0D390D120DEB0CC30C9A0C74
:100DFE00710C470C1C0CF10BC50B980B6B0B3D0BC0
:100E0E000F0BE00AB10A820A520A220AF109C0093E
:100E1E008F095E092C09FA08C8089608640832087A
:100E2E000008CD079B07690737070507D306A106FC
:100E3E0070063F060E06DD05AD057D054E051F0548
:100E4E00F004C204940467043A040E04E303B803E6
:100E5E008E0365033C031403ED02C602A0027C025E
:100E6E00580235021202F101D101B101930175014F
:100E7E0059013E0123010A01F200DB00C500B0005A
:100E8E009C0089007800670058004A003D0032003F
:100E9E0027001E0016000F000A00060002000100C7
:100EAE0000000100020006000A000F0016001E00DE
:100EBE00270032003D004A00580067007800890084
:100ECE009C00B000C500DB00F2000A0123013E01C8
:100EDE00590175019301B101D101F10112023502DF
:100EEE0058027C02A002C602ED0214033C03650305
:100EFE008E03B803E3030E043A0467049404C20499
:100F0E00F0041F054E057D05AD05DD050E063F06F9
:100F1E007006A106D3060507370769079B07CD079D
:100F2E002000400060008000A000C000E000000132
:100F3E002001400160018001A001C001E00100021A
:100F4E002002400260028002A002C002E002000302
:100F5E002003400360038003A003C003E0030004EA
:100F6E002004400460048004A004C004E0040005D2
:100F7E002005400560058005A005C005E0050006BA
:100F8E002006400660068006A006C006E0060007A2
:100F9E002007400760078007A007C007E00700088A
:100FAE001F083F085F087F089F08BF08DF08FF087B
:100FBE001F093F095F097F099F09BF09DF09FF0963
:100FCE001F0A3F0A5F0A7F0A9F0ABF0ADF0AFF0A4B
:100FDE001F0B3F0B5F0B7F0B9F0BBF0BDF0BFF0B33
:100FEE001F0C3F0C5F0C7F0C9F0CBF0CDF0CFF0C1B
:100FFE001F0D3F0D5F0D7F0D9F0DBF0DDF0DFF0D03
:10100E001F0E3F0E5F0E7F0E9F0EBF0EDF0EFF0EEA
:10101E001F0F3F0F5F0F7F0F9F0FBF0FDF0FFF0FD2
:10102E00DF0FBF0F9F0F7F0F5F0F3F0F1F0FFF0EC3
:10103E00DF0EBF0E9F0E7F0E5F0E3F0E1F0EFF0DBB
:10104E00DF0DBF0D9F0D7F0D5F0D3F0D1F0DFF0CB3
:10105E00DF0CBF0C9F0C7F0C5F0C3F0C1F0CFF0BAB
:10106E00DF0BBF0B9F0B7F0B5F0B3F0B1F0BFF0AA3
:10107E00DF0ABF0A9F0A7F0A5F0A3F0A1F0AFF099B
:10108E00DF09BF099F097F095F093F091F09FF0893
:10109E00DF08BF089F087F085F083F081F08000889
:1010AE00E007C007A007800760074007200700077A
:1010BE00E006C006A0068006600640062006000672
:1010CE00E005C005A005800560054005200500056A
:1010DE00E004C004A0048004600440042004000462
:1010EE00E003C003A003800360034003200300035A
:1010FE00E002C002A0028002600240022002000252
:10110E00E001C001A0018001600140012001000149
:10111E00E000C000A0008000600040002000000041
:00000001FF
